:020000040800F2
:10000000584B002045170008C1050008C30500082B
:10001000C7050008CB050008CF0500080000000058
:10002000000000000000000000000000D3050008F0
:10003000D505000800000000C7DE00087132000886
:100040005F1700085F1700085F1700085F170008B8
:100050005F1700085F1700085F1700085F170008A8
:100060005F1700085F1700085F1700085F17000898
:100070005F1700085F1700085F1700085F17000888
:100080005F1700085F1700085F1700085F17000878
:100090005F1700085F1700085F1700085F17000868
:1000A0005F1700085F1700085F1700085F17000858
:1000B0005F1700085F1700085F1700085F17000848
:1000C0005F1700085F1700085F1700085F17000838
:1000D0005F170008733400082D1000085F17000830
:1000E0005F1700085F1700085F1700085F17000818
:1000F000651300085F1700085F1700085F17000806
:100100005F1700085F1700085F1700085F170008F7
:100110005F1700085F1700085F1700085F170008E7
:100120005F1700085F1700085F1700085F170008D7
:100130005F1700085F1700085F1700085F170008C7
:100140005F1700085F1700085F1700085F170008B7
:100150005F1700085F1700085F1700085F170008A7
:100160005F1700085F1700085F1700085F17000897
:100170005F1700085F1700085F1700085F17000887
:100180005F1700085F17000800F002F800F06CF835
:100190000AA090E8000C82448344AAF10107DA45E2
:1001A00001D100F061F8AFF2090EBAE80F0013F0C8
:1001B000010F18BFFB1A43F001031847C0FE0000EF
:1001C000E0FE00000A444FF0000C10F8013B13F071
:1001D000070408BF10F8014B1D1108BF10F8015BA0
:1001E000641E05D010F8016B641E01F8016BF9D193
:1001F00013F0080F1EBF10F8014BAD1C0C1B09D1EA
:100200006D1E58BF01F801CBFAD505E014F8016B5B
:1002100001F8016B6D1EF9D59142D6D370470000ED
:100220000023002400250026103A28BF78C1FBD8FF
:10023000520728BF30C148BF0B60704766290FF0D6
:10024000EE8364290CF05885002070471FB50FF02D
:10025000DCFB0DF0F1F80400002000210EF0C8FDD9
:10026000E0601FBD10B510BD0DF0EAF91146FFF7B3
:10027000EDFF00F0F4F80DF008FA03B4FFF7F2FF19
:1002800003BC03F093F8000001E000F065FFFCE719
:100290000EB50AE000F0C9FD02A8002164230A4659
:1002A000CDE9001008460BF06EFCF3E70EB500BF79
:1002B00032E0002001F0DCF90446042C05D14FF4B3
:1002C000FA71002001F00EF910E0012C06D1012294
:1002D0004FF4FA71C82001F0BBF807E0022C05D1F9
:1002E00000224FF4FA71282001F0B2F802A8002190
:1002F00014230A46CDE9001008460BF044FC681CA4
:10030000C5B2322D08D100259548006808B90120F2
:1003100000E0002092490860CBE730B58BB004467E
:10032000002500BF03F050F90AA809F0BAF80AAA9C
:100330000121084605F043F900BF00BF00BF03F0EC
:100340007BFA054600BF00BF86480078401C8549FF
:10035000087000BF00BF284603F072FA00BF00BF5C
:1003600000BF0AA8032100220123CDE90532CDE90F
:1003700007101046590233227B4BCDE90132CDE9FB
:10038000031004200023AFF2DB0278A100907A482A
:1003900009F05EFC0AA8032100220123CDE9053201
:1003A000CDE90710104659023322744BCDE90132D2
:1003B000CDE9031005200023AFF22B1270A10090AD
:1003C000724809F045FC0AA8032100220123CDE967
:1003D0000532CDE907101046590233226C4BCDE9A6
:1003E0000132CDE9031006200023AFF2631269A1A8
:1003F00000906C4809F02CFC0AA96B480AF09DFF9C
:1004000000BF00BF00BF03F017FA054600BF00BFE2
:1004100054480078401E5349087008460078A0B937
:1004200062480088002809DD00BF00BF284603F0AD
:1004300007FA00BF00BF05F0ABFC0DE000BF00BF36
:10044000284603F0FDF900BF06E000BF00BF2846C4
:1004500003F0F6F900BF00BF00BF0BB030BD8AB09B
:100460000024A82002F010FF4FF4A06001F08AF9E8
:100470004FF4E13002F0A7FF00F0B6F900F0D4F934
:100480004FF4E13000F00DFE01F0D4F800F0D6FE9C
:10049000A72140F2E73000F0F1FE09A804F066FE63
:1004A00000BF00BF00BF03F0C7F9044600BF00BF94
:1004B0002C480078401C2B49087000BF00BF204624
:1004C00003F0BEF900BF00BF00BF09A8032100224E
:1004D0000592CDE90621089010464FF400713322B1
:1004E000334BCDE90132CDE9031003200023AFF2F5
:1004F000D51230A100902C4809F0AAFB00BF00BF24
:1005000000BF03F099F9044600BF00BF154800780A
:10051000401E1449087008460078A0B92348008896
:10052000002809DD00BF00BF204603F089F900BFA5
:1005300000BF05F02DFC0DE000BF00BF204603F01A
:100540007FF900BF06E000BF00BF204603F078F946
:1005500000BF00BF00BF09A805F0D1F800BFFEE74B
:10056000A8824242E0000020D00A00206C6564307E
:10057000207461736B0000000C0A002094130020AB
:100580006C656431207461736B000000D012002030
:10059000581C0020666C6F6174207465737420743D
:1005A00061736B00941B002048010020A400002010
:1005B0000C0200207374617274207461736B00000C
:1005C000704700BFFEE700BFFEE700BFFEE700BFC9
:1005D000FEE77047704700000CB5002001900090C6
:1005E0007648006840F480307449086000BF734862
:1005F000006800F4003000900198401C01900098C1
:1006000018B90198B0F5A04FF1D16C48006800F41A
:10061000003010B10120009001E00020009000980F
:10062000012846D165484030006840F08050634959
:10063000403108606248006840F44040604908600A
:100640005E48083000685D49083108600846006867
:1006500040F4004008600846006840F4A05008607C
:100660005848091F0860081F006840F08070091F83
:10067000086000BF5148006800F000700028F9D001
:1006800040F20570504908604C480830006820F07E
:1006900003004A49083108600846006840F002003B
:1006A000086000BF45480830006800F00C000828CA
:1006B000F8D10CBD10B54548006840F470004349BE
:1006C00008603E48006840F001003C490860002096
:1006D0003A4908310860394800683D4908403749BF
:1006E00008603C48091D0860081F006820F480204D
:1006F000091F0860002031490C310860FFF76CFFCA
:100700004FF0006031498039086010BD70B500209D
:100710000022022300240221284D08352D6805F00F
:100720000C0020B1042806D0082834D107E02A4D57
:100730002A4E356033E02A4D284E35602FE01F4D9C
:100740002D1D2D68C5F380541C4D2D1D2D6805F001
:100750003F0154B1224DB5FBF1F5184E361D3668F8
:10076000C6F3881605FB06F209E01B4DB5FBF1F553
:10077000124E361D3668C6F3881605FB06F20F4D7D
:100780002D1D2D68C5F301456D1C6B00B2FBF3F503
:10079000124E356003E0104D104E356000BF00BFB3
:1007A000064D08352D68C5F303150E4E705D0B4DD3
:1007B0002D68C540094E356070BD0000003802400C
:1007C0000070004008544007003C024088ED00E003
:1007D000FFFFF6FE103000240024F400000000208B
:1007E00000127A00040000201CB50121202001F035
:1007F0005DFB4FF4C060009001208DF804000020E4
:100800008DF806008DF8070003208DF80500694675
:10081000044801F0ADF84FF4C061024801F024F93A
:100820001CBD0000001402401CB50121022001F093
:100830003DFB4FF44070009001208DF80400002033
:100840008DF8060003208DF8050001208DF80700C3
:1008500069467E4801F08CF801207D4908607D4999
:10086000C1F8A4021CBD1CB54FF40070009001201B
:100870008DF8040000208DF8060003208DF8050097
:1008800001208DF807006946704801F071F81CBD21
:100890001CB54FF40070009000208DF8040001207A
:1008A0008DF807006946694801F062F81CBD10B573
:1008B000FFF7D9FF01206649091D08606549C1F8A5
:1008C000A002052002F00FFD00206149091D08600B
:1008D000062002F008FD00205E49C1F8A00210BD0C
:1008E00010B5FFF7C0FF0020594908605949C1F809
:1008F000A402012056490860062002F0F4FC012001
:100900005449C1F8A402062002F0EDFC10BD10B558
:100910000024FFF7BDFF01204D49091D086002F0CA
:10092000E2FC01204B49C1F8A00202F0DCFC07E028
:10093000601CC4B2FA2C03DDFFF7D2FF012010BD0A
:1009400043487C3800680028F2D14149086000BF64
:10095000F5E710B500203E490860FFF784FF00204E
:100960003C49C1F8A402022002F0BDFC0120384934
:100970000860052002F0B7FC00203649C1F8A0024B
:1009800010BD10B5002032490860FFF76CFF012050
:100990003049C1F8A402022002F0A5FC01202C4934
:1009A0000860052002F09FFC00202A49C1F8A0023F
:1009B00010BD70B50446FFF756FF002024490860BB
:1009C000002517E0E0092249091D08606006040EB1
:1009D000022002F088FC01201E49C1F8A00202207A
:1009E00002F081FC00201A490860022002F07BFC22
:1009F000681CC5B2082DE5DB70BD70B50546002446
:100A0000FFF746FF002616E000201149086002208B
:100A100002F069FC01200F49C1F8A0026006040E33
:100A20000B487C38006808B1601CC4B2012002F099
:100A30005AFC701CC6B2082EE6DB15B9FFF7A1FF01
:100A400001E0FFF786FF204670BD00000004024071
:100A5000A08240420080404270B506460C461A25EE
:100A6000FFF725FF2846FFF7A4FFFFF750FF3046AA
:100A7000FFF79FFFFFF74BFFE0B2FFF79AFFFFF78B
:100A800046FFFFF72DFF70BD70B505461A24FFF72E
:100A90000EFF2046FFF78DFFFFF739FFB020FFF76D
:100AA00088FFFFF734FF2846FFF783FFFFF72FFF8C
:100AB000FFF716FF70BD70B505462846FFF7E4FF47
:100AC0001B24FFF7F4FE2046FFF773FFFFF71FFF1D
:100AD0000020FFF792FF0446FFF753FFFFF700FFE8
:100AE000204670BD10B593218020FFF7B5FF9220FE
:100AF000FFF7E1FF044624029320FFF7DCFF0444E4
:100B0000A400A0B210BD70B52DED068BB0EE408AEA
:100B1000044618EE100A0EF007FF41EC1A0B9FED89
:100B2000FE0B53EC102B0EF03FFC41EC190B0EF0BA
:100B3000E3FB0546280C2070280A6070A570BDEC08
:100B4000068B70BD2DE9F04F2DED0C8B89B08146E1
:100B50008A4693461E46002008903178012088433B
:100B600008B1052000E0012009EE100A307800F0FD
:100B7000F000302801D1012000E0002007903078FB
:100B800000F00F070898002840D1FFF74DFE82249F
:100B9000002506E019F80510E0B2FFF75DFF641CC0
:100BA0006D1C032DF6DB8524002506E01AF80510E0
:100BB000E0B2FFF751FF641C6D1C032DF6DB8824A7
:100BC000002506E01BF80510E0B2FFF745FF641CA6
:100BD0006D1C022DF6DB802447F0B0012046FFF7A4
:100BE0003BFF641C7178E0B2FFF736FF641C47F0EE
:100BF00010018020FFF730FF0A2002F0A9FB47F028
:100C000020018020FFF728FF01200890C0E007E0C6
:100C10008F20FFF750FF804608F0020000B100E08F
:100C2000F6E700BF9420FFF746FF04909520FFF7FA
:100C300042FF0590DDE9040101EB002006909620BB
:100C4000FFF739FF01909720FFF735FF0290DDE9AC
:100C5000010101EB0020039006980EF07AFB41ECB5
:100C60001C0B03980EF075FB41EC1D0BB0EE4C1AFB
:100C7000F0EE6C1AB0EE4D0AF0EE6D0A0DF0E4FAEB
:100C8000B0EE40BAF0EE60BA9FEDA50B53EC102B1E
:100C900051EC1B0B0EF05EFD41EC1A0B0EF0CAF886
:100CA000A14908600698B0F5004F0FDB4FF6FF71C1
:100CB000069848400690069880F4004006900698F2
:100CC000401C0690069880F4004006900398B0F50A
:100CD000004F0FDB4FF6FF710398484003900398D5
:100CE00080F4004003900398401C0390039880F424
:100CF000004003908D49069808608D49039808606C
:100D000006994943039A02FB02100EF022FB41ECC4
:100D10001B0BB0EE4B0AF0EE6B0A0DF0F1FBB0EEE0
:100D200040AAF0EE60AA51EC1A0B0EF083F808EE20
:100D3000100AB8EE490A28EE000AF7EE000A80EE23
:100D4000801A7C4880ED001A1E9801280AD1794843
:100D500090ED000ADFED780A60EE208A7748C0ED5A
:100D6000008A00E000BF00BF8F20FFF7A4FE80468E
:100D700008F0040000B10CE00798012804D1317894
:100D80008020FFF769FE03E031788020FFF764FEE2
:100D90003DE700BFB0EE690A09B0BDEC0C8BBDE8C1
:100DA000F08F2DE9F0472DED048B86B0B0EE409A20
:100DB000B0EE608A04460D4616461F46DDF84890A0
:100DC0004FF0000AD046BAF1000F11D105A8B0EEDD
:100DD000490AFFF798FE04A8B0EE480AFFF793FE11
:100DE00020128DF80C00E0B28DF80D004FF0010AD2
:100DF00045EA060040EA07084FEA28208DF8080077
:100E000008F0FF008DF8090002AB03AA04A905A8A9
:100E1000CDF80090FFF796FEF0EE408AB0EE680A3B
:100E200006B0BDEC048BBDE8F08710B52DED028B4C
:100E300084B0002401204FF440530202D9100090E6
:100E40000920DFED3F0A9FED3E0AFFF7AAFFB0EE53
:100E5000408A03A8002114230A46CDE90010084661
:100E60000AF091FEB0EE480A04B0BDEC028B10BD52
:100E700020B52DED0A8B82B0F0EE408A02204FF4AF
:100E80004053C201002100900120DFED2D0A9FEDAB
:100E90002D0AFFF786FF244890ED000A10EE101A85
:100EA00008460EF041FD41EC1C0BB0EE4C0AF0EE92
:100EB0006C0A0DF0C1FAB0EE40AAF0EE60AA20462E
:100EC0000EF032FD41EC1B0B53EC1A2B0EF06CFABA
:100ED00041EC190B0DF0AEFF054628460EF024FD3F
:100EE00041EC1C0B9FED180B53EC102B0EF05CFA31
:100EF00041EC1B0B9FED160B53EC102B0EF074F80E
:100F000041EC1A0B53EC1A2B9FED130B51EC100B09
:100F10000EF06AF824E00000B30669014C0040407E
:100F20004DF1331F3382573F280000202C00002052
:100F300030000020240000202A670E4B14000020FF
:100F400000401C4600C8AF474AD8124DFB2119404B
:100F500000000000D01263412D431CEBE236EE3F4F
:100F600041EC190B0DF066FF08EE100AB0EE480ACE
:100F700002B0BDEC0A8B20BD00B52DED0C8B81B00D
:100F8000B0EE40DA032003034FF48072002100909A
:100F90001420F7EE000A9FED220AFFF702FF214816
:100FA00090ED000A10EE101A08460EF0BDFC41EC60
:100FB0001C0BB0EE4C0AF0EE6C0A0DF03DFAB0EEF0
:100FC00040AAF0EE60AA20460EF0AEFC41EC1B0BEE
:100FD00053EC1A2B0EF0E8F941EC190B0DF02AFF37
:100FE00008EE900A9FED100A28EE800A10EE101A03
:100FF00008460EF099FC41EC1A0B1FED2D0B53EC3B
:10100000102B0DF0F1FF41EC190B0DF013FF08EE62
:10101000100AB0EE480A01B0BDEC0C8B00BD000018
:101020000050C3472800002000007A4410B504F0A7
:1010300033F940F22441754801F06CFA40B174482C
:10104000008840F4004072490880704801F0A0F91F
:1010500040F225516D4801F05DFAF8B16B4801F09E
:1010600097F9C4B26A48008800F4004038B968486B
:1010700001880088401C664A1080664844546448D1
:1010800000880E2805DD6248008840F40040604971
:10109000088040F225515D4801F077FA04F00DF91F
:1010A00010BD10B588B00446584801F053F801212E
:1010B000084600F0FBFE0121480400F040FF0C2030
:1010C000059002208DF818008DF8190000208DF889
:1010D0001A0001208DF81B0005A94F4800F048FCBC
:1010E000072202214C4800F0CEFC072203214A4887
:1010F00000F0C9FC01940020ADF80800ADF80A002A
:10110000ADF80C00ADF810000C20ADF80E0001A9F0
:101110003E4801F086F8012240F225513B4801F09B
:10112000BEF90121394801F004F926208DF81C0090
:1011300002208DF81D0003208DF81E0001208DF87F
:101140001F0007A800F023FB012240F224412F4892
:1011500001F0A5F908B010BDF0B52DED068B83B0F8
:101160002B48008800F40040002845D0002408E007
:101170002848005DFE2802D125460F240126601C68
:10118000C4B20D2CF4DB012E33D1A81D0E2830DAA9
:101190002049E81D095C1F4AA81D105C01EB0020D6
:1011A00000EE100AB8EEC08A1C4800684FF4C871FF
:1011B00090FBF1F000EE100AF8EEC08A18480068C3
:1011C0000EF0B2FB41EC190B9FED160AC8EE000AB7
:1011D00010EE907A38460EF0A7FB41EC1A0B0F4840
:1011E000006802908DED009B53EC1A2B0EA00BF0C3
:1011F00077FD002006490880BCEEC80A10EE100AF0
:1012000080B203B0BDEC068BF0BD0000004400408E
:101210003400002058240020000002404400002038
:10122000140000200000C84225302E326C662C25A8
:10123000302E33662C256C640D0A00001CB501218C
:10124000102000F033FE6020009001208DF8040093
:1012500000208DF8060003208DF8050001208DF890
:1012600007006946CC4800F083FB2021CA4800F003
:10127000FBFB4021C84800F0F9FB1CBD30B58BB02A
:1012800004460D460121022000F06AFE01210420DF
:1012900000F00CFE03220721C04800F0F4FB802080
:1012A000099002208DF8280003208DF829000020E5
:1012B0008DF82A0002208DF82B0009A9B74800F00C
:1012C00057FB06A801F051FA0794ADF8185000201A
:1012D000ADF82000ADF81A0006A9B14801F011FAE6
:1012E0000121AF4801F0D6FE0121AD4801F068FAB6
:1012F0000821AB4801F07CFA7020ADF80400012011
:10130000ADF806000020ADF8080060100390002042
:10131000ADF8100001A9A24801F0C1FA0821A048C7
:1013200001F01AFC01219E4801F056FA01221146F3
:101330009B4801F087FE2C208DF8000001208DF8DD
:1013400001008DF802008DF80300684600F01FFAD6
:101350000121934801F09EFE0121914801F05AFAC3
:101360000BB030BD10B501218D4801F082FE002880
:1013700055D001218A4801F08DFE8A480078002866
:1013800041D18948006848B1FF2085493031088043
:1013900085480068401E8449086010E08348007852
:1013A00060B182480078401E7D49303108800020BD
:1013B0007E49087001207B49087000E024E001218B
:1013C000774801F048FE0121754801F014FE012123
:1013D000734801F01FFA76480078012809D1704857
:1013E00030300088401C734909680844714908601E
:1013F00015E06B4830300088401C6E490968081AB7
:101400006C4908600BE000BF0120664908700021AC
:10141000634801F0F0FD0021614801F0FBF910BDC7
:1014200070B504466448B0FBF4F0401E85B229460E
:101430005B4801F0B1F96910594801F052FB0021F5
:10144000574801F0A7F90121554801F0E3F970BDB3
:1014500070B504460D461646002C03DC57A00BF071
:101460003FFC70BD4E48008800F0010018B15EA03E
:101470000BF036FCF5E7142D02D36A48854203D9F8
:1014800069480BF02DFCECE7494806700078674985
:10149000086047480078012805D146480068204484
:1014A0006349086007E04248007820B94148006875
:1014B000001B5F4908602046E11704EB1161091227
:1014C000394A1160E11704EB11610912A4EB012103
:1014D000364A11700020334908702846FFF7A0FFF4
:1014E00000BFBEE770B505460C462D48008800F0E9
:1014F000010018B13CA00BF0F3FB70BD142C02D31B
:101500004848844203D948480BF0EAFBF5E74848CD
:10151000056000682749096888423AD04448006855
:1015200024490968884203DD01202149087002E04E
:1015300000201F4908701E4800783C4908603C4A5A
:1015400012681C4B1B68D11A002901DB0A4600E017
:101550004A421046D21700EB12621212124B1A6066
:10156000334A1268134B1B68D11A002901DB0A4663
:1015700000E04A421046D21700EB12621212A0EBB2
:1015800002220A4B1A700020064908702046FFF715
:1015900047FF00BFB1E70000001002400008024012
:1015A00000040140390000203C00002038000020E9
:1015B000480000204400002040420F000D0A5468FB
:1015C00065206E756D2073686F756C642062652090
:1015D00067726561746572207468616E207A6572E5
:1015E0006F21210D0A0000000D0A546865206C610E
:1015F00073742074696D652070756C7365732069F0
:1016000073206E6F742073656E642066696E6973F3
:101610006865642C7761697420706C6561736521FD
:101620000D0A0000A0860100340001089402424225
:10163000400000201CB50121112000F037FC1C20C7
:10164000009000208DF8040003208DF80500012093
:101650008DF807006946384800F08AF901200090AB
:1016600002208DF807006946344800F081F91CBD5E
:101670003EB5044614B10120314908703048007865
:1016800000283DD010212C4800F0D4F978B1082171
:10169000294800F0CFF950B10421274800F0CAF9D9
:1016A00028B10121254800F0C5F9012828D102A858
:1016B00000213C230A46CDE9001008460AF063FAEF
:1016C00000201F49087010211B4800F0B3F908B929
:1016D00001203EBD0821184800F0ACF908B90220ED
:1016E000F7E70421144800F0A5F908B90320F0E752
:1016F0000121124800F09EF901281BD10420E8E7DF
:1017000010210D4800F096F9012813D108210A484C
:1017100000F090F901280DD10421074800F08AF962
:10172000012807D10121054800F084F910B90120F2
:10173000034908700020CCE700100240000002407E
:10174000490000200948804709480047FEE7FEE7B6
:10175000FEE7FEE7FEE7FEE7FEE7FEE7FEE7FEE761
:1017600004480549054A064B70470000B5060008C5
:101770008901000858450020584B00205847002098
:101780005847002032490143324A1160704770B512
:10179000002100230F22C4781CB32E4C246804F4CB
:1017A000E064C4F5E064C4F30721C1F10404E3B2CA
:1017B0000A4144789C40E1B28478144021430C07EC
:1017C000210E254C05786155047804F01F0501248D
:1017D000AC4005786D11AD0005F1E025C5F800417C
:1017E00009E0047804F01F050124AC401B4D067885
:1017F000761145F8264070BD194A0A400243154B40
:101800001B1F1A60704739B1124A121D1268024339
:10181000104B1B1D1A6006E00E4A121D126882430F
:101820000C4B1B1D1A607047042808D14FF0E021B3
:10183000096941F004014FF0E022116107E04FF027
:10184000E021096921F004014FF0E02211617047A5
:101850000000FA050CED00E000E400E080E100E0AB
:1018600080FFFF1F10B504469848844208D101212B
:10187000084600F086FB0021012000F082FB76E0A4
:101880009348844208D10121022000F07AFB002114
:10189000022000F076FB6AE08E48844208D10121E4
:1018A000042000F06EFB0021042000F06AFB5EE0E3
:1018B0008948844208D10121082000F062FB002100
:1018C000082000F05EFB52E08448844208D10121E8
:1018D000102000F056FB0021102000F052FB46E0E3
:1018E0007F48844208D10121202000F04AFB0021DA
:1018F000202000F046FB3AE07A48844208D10121DA
:10190000402000F03EFB0021402000F03AFB2EE09A
:101910007548844208D10121802000F032FB00216B
:10192000802000F02EFB22E07048844208D1012183
:10193000801500F026FB0021A01500F022FB16E028
:101940006B48844208D10121401500F01AFB0021A8
:10195000601500F016FB0AE06648844207D10121B9
:10196000001500F00EFB0021201500F00AFB10BD51
:10197000F0B50A4600210023002400BF3DE0012508
:1019800005FA01F3156805EA03049C4234D10568A1
:101990004F000326BE40B543056015794E00B540A3
:1019A0000668354305601579012D02D01579022DA1
:1019B00016D185684F000326BE40B5438560557932
:1019C0004E00B540866835438560456801268E40E7
:1019D000B5434560456896798E40B6B2354345605B
:1019E000C5684F000326BE40B543C560D5794E009B
:1019F000B540C6683543C560491C1029BFD3F0BD4A
:101A00004FF6FF7101600021017141718171C17157
:101A1000704708B54FF480320092009A0A43009252
:101A2000009AC261C161009AC261C2690092C26932
:101A3000009208BD0246002013690B400BB1012043
:101A400000E0002070470146086980B270470246F6
:101A5000002053690B400BB1012000E000207047CB
:101A60000146486980B270470183704741837047DF
:101A70000AB1018300E041837047416170474269C8
:101A80004A4042617047F0B5002300244D07ED0E37
:101A900002FA05F3CE1000F1200555F826504E0746
:101AA000F70E0F26BE40B543CF1000F1200646F8D2
:101AB0002750CE1000F1200555F8265045EA0304C2
:101AC000CE1000F1200545F82640F0BD0000024090
:101AD0000004024000080240000C024000100240D6
:101AE0000014024000180240001C02400020024086
:101AF0000024024000280240F948006840F001003C
:101B0000F74908600020F64908310860F448006889
:101B1000F4490840F2490860F348091D0860F34899
:101B2000EF4984310860F0481038091D0860EC481E
:101B3000006820F48020EA4908600020E8490C3160
:101B40000860E7498C31086070470021E44A921C24
:101B5000117011460870704710B50146002200232D
:101B600000204A11012A02D1DD4C236808E0022A34
:101B700003D1DB4C7034236802E0D94C7434236801
:101B800001F01F02012494401C400CB1012000E030
:101B9000002010BD38B5002000900024002500BFB3
:101BA0003120FFF7D9FF05460098401C00900098AF
:101BB000B0F5A04F01D0002DF2D03120FFF7CCFFBF
:101BC00008B1012400E00024204638BD0146002071
:101BD000C34A106820F0F80040EAC1001060704766
:101BE000C349086070470021BD4A703211701170FE
:101BF000012802D004280AD104E00121B84A703239
:101C0000117005E00521B64A7032117000E000BF86
:101C100000BF7047B7490860704770B5049C41EA3F
:101C200082150126C6EB530645EA0645054345EAFB
:101C30000465AB4E361D356070BDAD490866704712
:101C4000820142EA0172A64B84331A607047A849A8
:101C50008866704710B5830143EA016343EA027363
:101C60009F4C8834236010BDA14908677047A04984
:101C7000C864704702460020994B0833186820F06A
:101C8000EC6042EA01031843954B08331860704733
:101C900002460020924B0833186820F0784042EA50
:101CA000010318438E4B083318607047014600202B
:101CB0008B4A0832106820F0030008431060704718
:101CC00087480830006800F00C007047014600208B
:101CD000834A0832106820F0F00008431060704713
:101CE000014600207E4A0832106820F4E050084384
:101CF0001060704701460020794A0832106820F4CD
:101D0000604040EAC10010607047F0B50021002239
:101D10000024022500260223714F08373F6807F090
:101D20000C0121B1042905D0082937D105E0724FF3
:101D3000076036E0714F076033E0694F3F1D3F6831
:101D4000C7F38056664F3F1D3F6807F03F036EB1F3
:101D50006A4FB7FBF3F7DFF888C10CF1040CDCF82D
:101D600000C0CCF3881C07FB0CF40CE0624FB7FBFF
:101D7000F3F7DFF86CC10CF1040CDCF800C0CCF315
:101D8000881C07FB0CF4564F3F1D3F68C7F3014703
:101D90007F1C7D00B4FBF5F7076002E0564F07603B
:101DA00000BF00BF4E4F08373F6807F0F001090938
:101DB000534F7A5C0768D7404760494F08373F6800
:101DC00007F4E051890A4E4F7A5C4768D740876034
:101DD000434F08373F6807F46041490B484F7A5C2E
:101DE0004768D740C760F0BD002100F44072B2F5EB
:101DF000407F0AD13A4A0832116821F4F811414A69
:101E000002401143364A08321160354A7032126876
:101E1000C0F30B031A43324B70331A6070473549D5
:101E20004439086070473349403908607047364983
:101E30000860704701460020294A8C32106820F063
:101E40001F004A1E1043264A8C321060704701461C
:101E50000020234A8C32106820F4F8504A1E40EAD1
:101E600002201F4A8C3210607047014600201C4A35
:101E70008C32106820F4401008431060704701460F
:101E80000020174A8C32106820F44000084310608C
:101E9000704701460020124A8C32106820F440300E
:101EA00008431060704719490860704739B10C4AFF
:101EB0003032126802430A4B30331A6006E0084A97
:101EC000303212688243064B30331A607047F9B1E2
:101ED000034A343212680243014B34331A601CE067
:101EE00000380240FFFFF6EA1030002400300020E6
:101EF00000004742800E47420024F40000127A009E
:101F00004A000020FFFCFF0F5C014742E0114742FE
:101F10008F4A126882438E4B1A60704739B18C4ADF
:101F2000121D126802438A4B1B1D1A6006E0884A84
:101F3000121D12688243864B1B1D1A60704739B10F
:101F4000834A0C3212680243814B0C331A6006E05C
:101F50007F4A0C32126882437D4B0C331A60704703
:101F600039B17B4A103212680243794B10331A6040
:101F700006E0774A103212688243754B10331A60BC
:101F8000704739B1724A243A12680243704B243BBD
:101F90001A6006E06E4A243A126882436C4B243B76
:101FA0001A60704739B16A4A203A12680243684B96
:101FB000203B1A6006E0664A203A12688243644B6E
:101FC000203B1A60704739B1614A1C3A12680243DB
:101FD0005F4B1C3B1A6006E05D4A1C3A1268824364
:101FE0005B4B1C3B1A60704739B1594A143A12686E
:101FF0000243574B143B1A6006E0554A143A1268E4
:102000008243534B143B1A60704739B1504A103A1F
:10201000126802434E4B103B1A6006E04C4A103ADD
:10202000126882434A4B103B1A60704739B1484AE4
:102030001C3212680243464B1C331A6006E0444AC5
:102040001C3212688243424B1C331A60704739B10C
:102050003F4A2032126802433D4B20331A6006E0AB
:102060003B4A203212688243394B20331A60704752
:1020700039B1374A243212680243354B24331A608F
:1020800006E0334A243212688243314B24331A600B
:10209000704739B12E4A2C32126802432C4B2C3334
:1020A0001A6006E02A4A2C3212688243284B2C33ED
:1020B0001A60704739B1264A303212680243244B05
:1020C00030331A6006E0224A303212688243204BD5
:1020D00030331A607047012808D11D493C31096826
:1020E00041F008011A4A3C32116007E018493C31BE
:1020F000096821F00801164A3C321160704739B175
:10210000134A273A12780243114B273B1A7006E014
:102110000F4A273A127882430D4B273B1A707047BB
:102120000B484030006840F0807009494031086039
:10213000704701460020064A283A12680A400AB150
:10214000012000E0002070470149263908707047DF
:102150003438024010B50446FA48844208D10121BF
:102160001020FFF752FF00211020FFF74EFF57E02D
:10217000F548844209D101214804FFF735FF0021C9
:102180004FF40030FFF730FF4AE0F048844209D1B5
:1021900001218804FFF728FF00214FF48020FFF77A
:1021A00023FF3DE0EA48844209D10121C804FFF73A
:1021B0001BFF00214FF40020FFF716FF30E0E54839
:1021C000844209D101210805FFF70EFF00214FF4D9
:1021D0008010FFF709FF23E0DF48844208D1012186
:1021E0002020FFF712FF00212020FFF70EFF17E04D
:1021F000DA48844209D101218807FFF7F5FE002162
:102200004FF08040FFF7F0FE0AE0D548844207D146
:1022100001214005FFF7E8FE00216005FFF7E4FE1D
:1022200010BD2DE9FF4705460E460024A14600BF1C
:10223000A046B08900B100BF2C8A24F44054F08835
:1022400004432C82AC8941F20C608443B08831890C
:102250000843718908430443AC81AC8A24F4407478
:10226000B0890443AC826846FFF74FFDB54885420C
:1022700002D0B948854202D1DDF80C9001E0DDF8CA
:102280000890A88900F4004040B109EBC90000EBB8
:10229000091031684900B0FBF1F707E009EBC9000C
:1022A00000EB091031688900B0FBF1F76420B7FB3F
:1022B000F0F004012009642101FB1078A88900F4E2
:1022C000004040B1322000EBC800B0FBF1F000F05C
:1022D0000700044308E0322000EB08106421B0FB43
:1022E000F1F000F00F0004432C81BDE8FF874FF4AC
:1022F0001651016000218180C18001810C21418142
:1023000000218181704710B502460020108A20F418
:1023100070600B884C8823438C882343CC882343EC
:102320001843108210BD0021018041808180C1804E
:10233000704721B1828942F40052828104E082898F
:102340004DF6FF731A4082817047028B02F47F4280
:102350000283028B0A430283704721B1828942F4CF
:102360000042828103E08289C2F30E0282817047BB
:1023700021B1828A42F40062828204E0828A4FF2B2
:10238000FF731A4082827047C1F30802828070474F
:1023900001468888C0F308007047028A4FF6F07340
:1023A0001A400282028A0A430282704721B182895E
:1023B00042F00202828104E082894FF6FD731A40E6
:1023C0008281704782894FF2FF731A40828182892D
:1023D0000A4382817047028A4FF6DF731A400282F5
:1023E000028A0A430282704721B1028A42F4804283
:1023F000028204E0028A4BF6FF731A4002827047A1
:10240000818941F001018181704721B1828A42F0C6
:102410000802828204E0828A4FF6F7731A408282B1
:102420007047028BD2B20283028B42EA01220283FE
:10243000704721B1828A42F02002828204E0828ABF
:102440004FF6DF731A408282704721B1828A42F0D0
:102450001002828204E0828A4FF6EF731A40828271
:102460007047828A4FF6FB731A408282828A0A433F
:102470008282704721B1828A42F00202828204E0A5
:10248000828A4FF6FD731A40828270471AB1838A9E
:102490000B43838202E0838A8B4383827047F0B5CB
:1024A0000346002400260025002040F66A17B942A2
:1024B00000D100BF1846C1F3421401F01F060127E6
:1024C00007FA06F5012C01D10C3004E0022C01D1F1
:1024D000103000E014301AB107682F43076002E0A3
:1024E0000768AF430760F0BD02460020B1F5007FEA
:1024F00000D100BF13880B400BB1012000E0002089
:10250000704701F40072B2F5007F00D100BFCA43EA
:102510000280704770B50246002400230025002089
:1025200040F66A16B14200D100BFC1F3421501F076
:102530001F03012606FA03F3012D13D196893340B8
:1025400017E0000000100140004400400048004037
:10255000004C004000500040001401400078004052
:10256000007C0040022D02D1168A334001E0968A99
:1025700033400C12012606FA04F41688344013B1D5
:102580000CB1012000E0002070BD10B50022002336
:1025900040F66A14A14200D100BF0A1201249440FF
:1025A000A3B2DC43048010BD10B50446FE4884424B
:1025B00008D101210846FFF728FD00210120FFF77F
:1025C00024FD9DE0B4F1804F08D101210846FFF7BA
:1025D0000BFD00210120FFF707FD91E0F348844245
:1025E00008D101210220FFF7FFFC00210220FFF7A4
:1025F000FBFC85E0EE48844208D101210420FFF76E
:10260000F3FC00210420FFF7EFFC79E0E948844265
:1026100008D101210820FFF7E7FC00210820FFF77F
:10262000E3FC6DE0E448844208D101211020FFF76B
:10263000DBFC00211020FFF7D7FC61E0DF4884427B
:1026400008D101212020FFF7CFFC00212020FFF737
:10265000CBFC55E0DA48844208D101210220FFF783
:10266000D4FC00210220FFF7D0FC49E0D548844289
:1026700009D101210804FFF7C8FC00214FF4803084
:10268000FFF7C3FC3CE0D048844209D10121480453
:10269000FFF7BBFC00214FF40030FFF7B6FC2FE042
:1026A000CA48844209D101218804FFF7AEFC002109
:1026B0004FF48020FFF7A9FC22E0C548844208D1EE
:1026C00001214020FFF790FC00214020FFF78CFC07
:1026D00016E0C048844208D101218020FFF784FC25
:1026E00000218020FFF780FC0AE0BB48844207D12C
:1026F00001218015FFF778FC0021A015FFF774FC7D
:1027000010BD00220288A84B98420ED0AC4B9842D4
:102710000BD0B0F1804F08D0A44B984205D0A44B09
:10272000984202D0A34B984204D14FF68F731A40BF
:102730004B881A43A04B984207D0A04B984204D034
:102740004FF6FF431A400B891A4302804B68C3625D
:102750000B880385944B984202D0994B984201D143
:102760008B7A03860123838270474FF0FF314160EB
:102770000021018001814180817270470185828240
:1027800070470A46002101884FF68F7319401143A4
:102790000180704741627047C16270470146486AD4
:1027A00070470146088D704721B1028842F002024D
:1027B000028004E002884FF6FD731A4002807047E1
:1027C00021B1028842F00402028004E002884FF640
:1027D000FB731A400280704721B1028842F08002E8
:1027E000028004E002884FF67F731A40028070472F
:1027F00002884FF6F7731A40028002880A4302806B
:10280000704702884FF6FF431A40028002880A434D
:102810000280704721B1028842F00102028004E088
:1028200002884FF6FE731A400280704770B500248C
:1028300000220023058C4FF6FE7635400584028C7D
:102840008388048B4FF68F752C40B51E2C400D8865
:102850002C43751E2A408D892A434D882A43524DA8
:10286000A84202D0564DA84213D14FF6F7752A4020
:10287000CD892A434FF6FB752A408D882A434FF6AF
:10288000FF652B404FF6FF552B400D8A2B434D8A99
:102890002B43838004838D684563028470BD70B5CB
:1028A000002400220023058C4FF6EF763540058486
:1028B000028C8388048B48F6FF752C404FF6FF4549
:1028C0002C400D884FF6FF7606EA05252C434FF67F
:1028D000DF752A408D8906EA05152A434D8806EAE8
:1028E00005152A43304DA84202D0354DA8421DD1CE
:1028F0004FF67F752A40CD894FF6FF7606EA05151B
:102900002A434FF6BF752A408D8806EA05152A43EB
:102910004FF6FF352B404FF2FF752B400D8A06EA2C
:1029200085052B434D8A06EA85052B438380048366
:102930008D688563028470BD70B500240022002379
:10294000058C4FF6FF6635400584028C8388848BA6
:102950004FF68F752C404FF6FC752C400D882C439C
:102960004FF6FF552A408D894FF6FF7606EA05257A
:102970002A434D8806EA05252A430B4DA84202D07A
:102980000F4DA84238D14FF2FF752A40CD894FF63E
:10299000FF7606EA05252A434FF6FF352A408D8843
:1029A00006EA05252A4319E0000001400004004022
:1029B00000080040000C00400010004000140040DF
:1029C0000004014000400140004401400048014033
:1029D00000180040001C0040002000404EF6FF752B
:1029E0002B404DF6FF752B400D8A06EA05152B434B
:1029F0004D8A06EA05152B43838084838D68C56361
:102A0000028470BD70B5002200230024058C4EF6B0
:102A1000FF7635400584038C8488828B48F6FF75E9
:102A20002A404FF6FF452A400D884FF6FF7606EA0A
:102A300005252A434DF6FF752B408D8906EA05359D
:102A40002B434D8806EA05352B43FE4DA84202D0A4
:102A5000FD4DA84208D14BF6FF752C400D8A4FF66C
:102A6000FF7606EA85152C43848082838D68056491
:102A7000038470BD0021018041808180816081815B
:102A8000C18101824182704770B503460020002455
:102A90001846183001258D40ACB21D8CA5431D840D
:102AA00009B108290AD100EB610005684FF68F765D
:102AB000354005600568154305600FE00D1FC5F33F
:102AC0004E052844056848F6FF76354005600568E0
:102AD0004FF6FF7606EA02263543056070BD416376
:102AE000704781637047C1637047016470470A464D
:102AF0000021018B4FF68F731940114301837047FA
:102B00000A460021018B48F6FF7319404FF6FF7308
:102B100003EA02231943018370470A460021818B8F
:102B20004FF68F7319401143818370470A46002185
:102B3000818B48F6FF7319404FF6FF7303EA0223B7
:102B40001943818370470A460021018B4FF6F773C2
:102B500019401143018370470A460021018B4FF24F
:102B6000FF7319404FF6FF7303EA022319430183F1
:102B700070470A460021818B4FF6F77319401143C5
:102B8000818370470A460021818B4FF2FF73194001
:102B90004FF6FF7303EA02231943818370470A4605
:102BA0000021018B4FF6FB731940114301837047DD
:102BB0000A460021018B4FF6FF3319404FF6FF7391
:102BC00003EA02231943018370470A460021818BDF
:102BD0004FF6FB7319401143818370470A46002169
:102BE000818B4FF6FF3319404FF6FF7303EA022340
:102BF0001943818370470A460021018B4FF67F738A
:102C000019401143018370470A460021018BC1F32B
:102C10000E014FF6FF7303EA022319430183704745
:102C20000A460021818B4FF67F731940114381833F
:102C300070470A460021818BC1F30E014FF6FF73E6
:102C400003EA02231943818370470A460021018C5D
:102C50004FF6FD7319401143018470470A46002165
:102C6000018C4FF6F77319401143018470470A46EF
:102C70000021018C4FF6DF7319404FF6FF7303EA12
:102C800002131943018470470A460021018C4FF654
:102C90007F7319404FF6FF7303EA0213194301844F
:102CA00070470A460021018C4FF6FF5319404FF63A
:102CB000FF7303EA02231943018470470A46002187
:102CC000018C4FF2FF7319404FF6FF7303EA0223A2
:102CD0001943018470470A460021018C4DF6FF73A9
:102CE00019404FF6FF7303EA02331943018470471A
:102CF00030B5002301248C40A3B2048C9C4304848F
:102D0000048C02FA01F5ADB22C43048430BD30B519
:102D1000002304248C40A3B2048C9C430484048CC0
:102D200002FA01F5ADB22C43048430BD828B4FF220
:102D3000FF331A408283828B4FF6FF7303EA01232D
:102D40001A4382837047F0B50C46154600210022D5
:102D50000026078C4EF6FF7C07EA0C070784818B60
:102D6000028C4FF6FF7707EA043640F6FF473940FA
:102D70004FF6FF7707EA052739434FF6FF7707EA53
:102D80000337394345F6FF773A4046F480573A43D4
:102D900081830284F0BD828B4FF6F3731A408283E5
:102DA000828B0A4382837047F0B50C46154600219A
:102DB00000220026078C4FF6FF6C07EA0C070784F9
:102DC000818B028C4FF6FF7707EA04264FF60C77CB
:102DD00039404FF6FF7707EA03172F4339434FF285
:102DE000FF573A4046F480773A4381830284F0BD2E
:102DF000028B4FF2FF331A400283028B4FF6FF73B0
:102E000003EA01231A4302837047F0B50C461546C6
:102E1000002100220026078C4FF6EF7C07EA0C0702
:102E20000784018B028C4FF6FF7707EA041640F601
:102E3000FF4739404FF6FF7707EA033739434FF62C
:102E4000FF7703E0000001400004014007EA052786
:102E500039434FF65F773A4046F010073A43018313
:102E60000284F0BD028B4FF6F3731A400283028B8B
:102E70000A4302837047F0B50C4615460021002234
:102E8000068C4FF6FE773E400684018B028C4FF68F
:102E90000C7631407E1C06EA03162E4331434FF672
:102EA000F576324044F00106324301830284F0BDDE
:102EB00070B505460C46208850B92389A2886188E0
:102EC0002846FFF7D8FFE1882846FFF7CBFF25E02B
:102ED000208804280AD12389A28861882846FFF720
:102EE00094FFE1882846FFF783FF17E02088082831
:102EF0000AD12389A28861882846FFF755FFE18817
:102F00002846FFF748FF09E02389A2886188284600
:102F1000FFF719FFE1882846FFF708FF70BD002181
:102F200001804180012181800021C18001817047A1
:102F30002DE9F04105460C4600260127608808B9B6
:102F4000022600E00026A088012801D1022700E027
:102F500001272088A0B92389A28861882846FFF725
:102F60008AFFE1882846FFF77DFF23893A463146EC
:102F70002846FFF74AFFE1882846FFF739FF13E0AC
:102F80002389A28861882846FFF73FFFE188284609
:102F9000FFF72EFF23893A4631462846FFF76BFF9D
:102FA000E1882846FFF75EFFBDE8F0810146486BE7
:102FB00070470146886B70470146C86B70470146F1
:102FC000086C70470A884B881A438B881A43CB8851
:102FD0001A430B891A434B891A438B891A43A0F869
:102FE000442070470021018041808180C18001819F
:102FF00041818181704731B1B0F8442042F40042F0
:10300000A0F8442005E0B0F84420C2F30E02A0F876
:103010004420704721B1828842F00402828004E09B
:1030200082884FF6FB731A408280704721B18288F4
:1030300042F00102828004E082884FF6FE731A405B
:10304000828070471AB183890B43838102E08389B0
:103050008B43838170478182704702460020138A28
:103060000B400BB1012000E000207047CA430282F0
:10307000704730B50246002000230024158A05EA77
:103080000103958905EA010413B10CB1012000E0A8
:10309000002030BDCA430282704741EA0203A0F813
:1030A000483070471AB183890B43838102E08389DA
:1030B0008B438381704721B1828842F0080282806D
:1030C00004E082884FF6F7731A40828070470189C6
:1030D0004FF6F8721140018170470A4600210189BC
:1030E0004FF68F73194011430181704730B5044684
:1030F0000D4629462046FFF7F0FF208940F00700E3
:10310000208130BD2DE9F04104460D4616461F468C
:10311000602D06D13B46012231462046FFF775FE61
:1031200005E03B46012231462046FFF7A4FE294632
:103130002046FFF7D2FF208940F007002081BDE83C
:10314000F08130B50C4600210189C9B24FF6FF75F8
:1031500005EA0325154325432943018130BD2DE9A7
:10316000F04105460E4617469846002443463A4627
:1031700031462846FFF7E5FF2C894FF6F8700440EA
:1031800044F007044FF68F70044044F070042C8123
:10319000BDE8F081F0B504460D4616461F463B4695
:1031A000324629462046FFF7CCFF208940F4804074
:1031B0002081F0BD82884FF68F731A40828082880A
:1031C0000A438280704702894FF6F8731A400281E1
:1031D00002890A430281704702894FF67F731A40C1
:1031E000028102890A4302817047F0B50C461546F8
:1031F0001E460021002200230189028B038C4FF61A
:10320000F877394021434FF6FC473A4040F2011726
:103210003A434FF6DD773B404FF6FF7707EA061754
:103220002F433B43018102830384F0BD21B1828897
:1032300042F08002828004E082884FF67F731A4059
:1032400082807047A0F850107047000008B56846AB
:1032500002F0DCF808BD08B5684602F021F908BDA7
:1032600038B504466A460821204608F007FC38BDF8
:1032700010B548480078012805D102F00DF808F093
:1032800089FE02F01AF810BD70B504466FF0040014
:10329000FEF7CAFA2046E11704EB5171C1F3C701EA
:1032A0003D4A1170E11704EB5171CD103B480068A5
:1032B0003B49B1FBF0F04543384800684FF47A7160
:1032C000B1FBF0F0374908804FF0E020006940F092
:1032D00002004FF0E021086108464561006940F0B6
:1032E0000100086170BD2DE9F047074600264FF048
:1032F000E020D0F814902848007807FB00F8FFF78A
:10330000A5FF4FF0E020856911E04FF0E0208469CF
:10331000AC420CD0AC4202D2281B064403E0A9EB1D
:103320000400284406442546464500D300E0ECE767
:1033300000BFFFF790FFBDE8F08708B5154800789B
:10334000012803D1684608F0F7FD08BD0020FCE71E
:1033500070B504460F480078A0B11348007888B9CA
:1033600010480088844206DB0E48008894FBF0F584
:103370002846FFF775FF0B48008894FBF0F100FB2F
:10338000114084B24FF47A7104FB01F0FFF7ABFFF8
:1033900070BD0000990000205A0000201CFC0008AD
:1033A00040420F005C0000209800002000BF7047E2
:1033B00000BF504A128802F04002002AF9D0C2B27F
:1033C0004C4B9A80704710B588B0044601210846DE
:1033D000FEF76CFD01211020FEF7C2FD0722092136
:1033E0004548FEF750FB07220A214348FEF74BFBF6
:1033F0004FF4C060069002208DF81C008DF81D006F
:1034000000208DF81E0001208DF81F0006A93A4803
:10341000FEF7AEFA02940020ADF80C00ADF80E00F5
:10342000ADF81000ADF814000C20ADF8120002A9A0
:103430003048FEF7F6FE01212E48FEF77AFF4021C4
:103440002C48FFF75EF8012240F225512948FFF78A
:1034500026F825208DF8040003208DF805008DF84E
:10346000060001208DF8070001A8FEF790F908B0CA
:1034700010BD10B501F010FF40F225511D48FFF7B7
:1034800049F810B31B48FEF783FFC4B21B480088FD
:1034900000F40040C8B91948008800F4804060B1C9
:1034A0000A2C03D000201549088020E0134800882A
:1034B00040F400401149088019E00D2C06D10F4856
:1034C000008840F480400D49088010E00B480088D7
:1034D000C0F30D000A490C5408480088401C0749F5
:1034E000088008460088C72801DD0020088001F018
:1034F000E4FE10BD00100140000002406400002006
:10350000642400201FB56846FEF7FFFB019804B055
:1035100010BD10B5FFF7F6FF04461848006840F0EC
:103520008070164908600020154948600846006808
:1035300040F001000860204600F0B7F810BD1049C7
:10354000486870472DE9F0478246FFF7DBFF4FF0F0
:10355000000980460B4A00234046494609F049FBD2
:10356000064632460B465046002109F042FB04460F
:103570000D4620462946BDE8F0870000FCED00E03E
:10358000001000E040420F0010B5002400BF00BF53
:1035900000F052F9044600BF00BF1021A14800F01E
:1035A000D2FA00BF00BF204600F04AF900BF00BFBA
:1035B00010BD10B5FFF7E8FF10BD10B500209A4907
:1035C0000860FFF7A6FF10BD10B5FFF7F6FFFFF785
:1035D000F0FF10BD00BFFEE770B505460C460026A3
:1035E00014B900BFFFF7F6FF15B90A20208070BD9F
:1035F00000BF00BF00F020F9064600BF00BF102248
:103600008849284600F056FF00BF00BF304600F052
:1036100017F900BF00BF0020208000BFE7E72DE9B9
:10362000F04105460C46002714B900BFFFF7D2FF52
:103630001DB90A202080BDE8F0811021284600F045
:1036400021FF0646102E15D200BF00BF00F0F4F88F
:10365000074600BF00BF10222946724800F02AFF2B
:1036600000BF00BF384600F0EBF800BF00BF0020ED
:10367000208002E04FF47A70208000BFDBE710B5B5
:10368000FFF75DFF0446204610BD704700B50146B8
:1036900011B900BFFFF79EFF634A106808B100220E
:1036A00001E04FF4FA620A8000BD5F49086070478C
:1036B00070B50546284600F0CAF80446183C204676
:1036C00070BD70B50546284600F0C1F80446103CB0
:1036D000204670BD70B50546284600F0B8F804468F
:1036E00000BF204670BD30B502460B460024D2F123
:1036F000FF359C4126D24FF6FF74D2F1FF359C4135
:103700000FD26FF07F44D2F1FF359C4103D2190EE6
:10371000464C605C44E0190C444C645C04F10800C5
:103720003EE0FF24D2F1FF359C4105D2190A3F4CFF
:10373000645C04F1100033E019463C4C645C04F115
:1037400018002DE04FF6FF750024AD1A9C4115D2EC
:103750006FF07F450024AD1A9C4107D2140E44EA55
:103760000321324C645C04F1200019E0140C44EA9B
:1037700003412E4C645C04F1280011E00024D2F1D6
:10378000FF059C4107D2140A44EA0361274C645C9C
:1037900004F1300004E01146244C645C04F138006C
:1037A00030BD70B504460CB9082070BD204600F04D
:1037B00051F805462846F8E770B504460CB91020C4
:1037C00070BD204600F046F805462846F8E770B57B
:1037D00004460CB9202070BD204600F03BF8054699
:1037E0002846F8E72DE9F04304460D46002184EA17
:1037F00001006940084302D14020BDE8F083E24364
:10380000E843521C40F1000102EA040601EA050700
:1038100030463946FFF767FF8046C8F13F09484602
:10382000EBE700002C2500206800002024FA0008A7
:1038300072B6704762B67047EFF3108072B6704789
:1038400080F31088704730BF704720BF7047B0FAD0
:1038500080F0704790FAA0F0B0FA80F0704790FACC
:10386000A0F070470146412903DB5A2901DC0122FF
:1038700000E00022012A08D0612903DB7A2901DC5B
:10388000012200E00022012A01D1012200E00022F1
:10389000104670470146412903DB5A2901DC012209
:1038A00000E00022012A08D0612903DB7A2901DC2B
:1038B000012200E00022012A01D1012200E00022C1
:1038C000012A08D0302903DB392901DC012200E07C
:1038D0000022012A01D1012200E000221046704797
:1038E0000146612903DB7A2901DC012200E0002284
:1038F000104670470146412903DB5A2901DC0122A9
:1039000000E00022104670470146302903DB3929C8
:1039100001DC012200E000221046704701463029F8
:1039200003DB372901DC012200E00022104670474A
:103930000146302901DB392907DD412901DB462910
:1039400003DD612903DB662901DC012200E000229E
:10395000104670470146202901D0092901D10122D2
:1039600000E00022104670470146202909D00D29A9
:1039700007D00A2905D00C2903D0092901D00B2929
:1039800001D1012200E000221046704701462029A3
:1039900003DB7E2901DC012200E000221046704793
:1039A0000146212903DB7E2901DC012200E00022FF
:1039B000104670470146202903DB7E2901DC0122E5
:1039C00000E00022012A35D1202909D00D2907D095
:1039D0000A2905D00C2903D0092901D00B2901D1CE
:1039E000012200E000222ABB412903DB5A2901DC25
:1039F000012200E00022012A08D0612903DB7A2994
:103A000001DC012200E00022012A01D1012200E0B4
:103A10000022012A08D0302903DB392901DC0122E8
:103A200000E00022012A01D1012200E000220AB9AF
:103A3000012200E000221046704701464AB2002AE7
:103A400001DB1F2901DD7F2901D1012200E00022D5
:103A5000104670470146412903DB5A2901DC012247
:103A600000E00022012A02D101F1200200E00A4612
:103A7000D0B270470146612903DB7A2901DC0122BB
:103A800000E00022012A02D1A1F1200200E00A4652
:103A9000D0B27047F0B504460B462046FFF7EAFF68
:103AA00005461846FFF7E6FF0646B54201D101205C
:103AB00000E0002007463846F0BD0000FC48FD4904
:103AC00001600146416000218160C1600161416186
:103AD0008161C16101620163C1624162F649816332
:103AE000C1634FF48061016441640146F34A11608F
:103AF00070472DE9F04105460B4694460027002407
:103B000002E03F021F43641C042CFAD3604605F018
:103B10000306294646B1344603E001F8013B401E46
:103B2000641C08B1042CF8D30A4601E080C2001FCF
:103B30000428FBD2114602E001F8013B401E002898
:103B4000FAD1BDE8F08130B505460C462246002189
:103B50002846FFF7CEFF30BD2DE9F04F85B0074670
:103B60008846914646463D46AE4207D94A464146BA
:103B7000384601F01DF905B0BDE8F08F4C4607EB63
:103B80000900451E08EB0900461EA81B0490049876
:103B9000042834D305F00300029006F003010191DC
:103BA000DDE90110884201D1012000E000200090F1
:103BB0000098012823D10298032810D0029840B21F
:103BC000039008E016F8010905F80109641E03983E
:103BD000401E40B2039014B103980028F2DAA5F118
:103BE000030AA6F1030B04E05BF804094AF8040990
:103BF000241F042CF8D20AF103050BF1030604E09C
:103C000016F8010905F80109641E002CF8D100BF5F
:103C1000B1E72DE9F84F80468946154615B90120D0
:103C2000BDE8F88FB8F1000F01D10020F8E7B9F135
:103C3000000F01D10020F3E70124294608EB05021B
:103C400009EB050302F0030C03F0030BDC4501D183
:103C5000012000E0002000900098012829D1BCF14B
:103C6000000F12D0E2460AE0521E5B1E107893F855
:103C700000E0704500D00024491EAAF1010A012C81
:103C800003D111B1BAF1000FEED1012C11D11646BA
:103C90001F4608E0361F3F1F3068D7F800E0704528
:103CA00000D00024091F012C01D10429F2D2324690
:103CB0003B4608E0521E5B1E107893F800E070450A
:103CC00000D00024491E012C01D10029F2D1204648
:103CD000A6E7F0B503460E461546D96BB1FBF5F0E5
:103CE00005FB101CBCF1000F02D0A5EB0C0200E09C
:103CF00000229419586CA04201D20020F0BD0F1987
:103D00001144DF63586C001B58640846F6E72DE940
:103D1000F04106460F46B6FBF3FC03FB1C6109B1FC
:103D20005C1A00E00024B2FBF3FC03FB1C2109B188
:103D30005D1A00E0002502EB0508A7F1010C08FB65
:103D40000C4C0CEB0200BDE8F0812DE9FE4F8046E3
:103D5000894614461E46002000900CB901AC00BFF5
:103D600000202060524F00BF00BFFFF765FD0090AC
:103D700000BF00BFF86B0290D7F844B04B464246F4
:103D800001210298FFF7C3FF05465D450FD900BF2B
:103D900000BF0098FFF754FD00BF00BFA5EB0B006C
:103DA000206042F2E27030800020BDE8FE8F4A467B
:103DB00041463846FFF78DFF8246BAF1000F0CD11D
:103DC00000BF00BF0098FFF73BFD00BF00BF2560AC
:103DD00042F2E27030800020E7E700BF00BF0098A9
:103DE000FFF72EFD00BF00BF42F21070308050463A
:103DF000DBE72DE9FC5F07460C469046002000906B
:103E000000BF00BFFFF718FD009000BF00BFD7F84C
:103E10000490D9F8380008B1484600E024488246AA
:103E2000DAF84450DAF83CB000BF00BF0098FFF762
:103E300007FD00BF00BF012C0AD9BBFBF4F004FB57
:103E400010B60EB1A01B00E00020019001982D1AC1
:103E500042F21070A8F800002846BDE8FC9F70B53B
:103E600004460D462A4621461148FFF7C2FF064682
:103E7000304670BD18B942F211720A807047104A7C
:103E80000260002242608260C2600261426182611F
:103E9000C2610262826242630263C2624262826300
:103EA000C2630264426442F210720A8000BFE5E716
:103EB0003C25002048454150842500206C0000200E
:103EC0004E4F4E452DE9FF4F91B00446DDE9208964
:103ED00000200090B8F1000F02D10DF1180800BFCA
:103EE0000020C8F8000049462046FFF7C3FFB9F894
:103EF000000042F21071884202D015B0BDE8F08F88
:103F0000FE48006820B942F2E770A9F80000F4E723
:103F1000DFF8ECA30020059000BF00BFFFF78CFC8A
:103F2000009000BF00BF129880BB5546AB462E469E
:103F3000DAF83C000D9004231A4614990D98FFF707
:103F4000E6FE049004990D9808440C90DDE91E23C8
:103F500014990C98FFF7DBFE0390DDE90301084498
:103F60000590DAF844700598B8427DD900BF00BFCB
:103F70000098FFF765FC00BF00BF0598C01BC8F89C
:103F8000000042F2E270A9F80000B6E7FFE71298DD
:103F90000B90DDE912010844401E0A900025AB4653
:103FA000D64806683BE0B16B1298814205D1316C6E
:103FB0001398814201D1354633E0B06B0990316CE2
:103FC000B06B0844401E0890DDE90901814200D22F
:103FD00027E009990B98884203D8DDE90910884247
:103FE0000FD209990B98884203D308990A988842FE
:103FF00007D908990B9888420FD808990A988842DF
:104000000BD300BF00BF0098FFF71AFC00BF00BF32
:1040100042F27F70A9F800006FE7B346F668002E01
:10402000C1D100BF45B925461298A0631298E0633C
:104030001398206413986064DAF83C000D90042310
:104040001A4614990D98FFF762FE0490DAF844704E
:104050000498B84211D900BF00BF0098FFF7F0FBE9
:1040600000BF00BF049800E024E0C01BC8F80000B7
:1040700042F2E270A9F800003FE7E86B0C90DDE93E
:104080001E2314990C98FFF742FE03906F6C03985F
:10409000B8420FD900BF00BF0098FFF7D1FB00BFA7
:1040A00000BF0398C01BC8F8000042F2D870A9F8FE
:1040B000000022E7149880000290042250460299E2
:1040C000FFF707FE0F900F9830BBDAF8447000BF7F
:1040D00000BF0098FFF7B4FB00BF00BF129858B9AB
:1040E0000598B84204D90598C01BC8F800000EE036
:1040F0000598C8F800000AE00298B84204D902986E
:10410000C01BC8F8000002E00298C8F8000042F2A4
:10411000E270A9F80000F0E60020019034E02846A3
:10412000DDE91E12FFF7D5FD0E900E9820BBE86B5F
:104130000C906F6C00BF00BF0098FFF781FB00BFC1
:1041400000BF01991498401A0790DDE91E230799D2
:104150000C98FFF7DCFD05900598B84204D9059846
:10416000C01BC8F8000002E00598C8F8000042F241
:10417000D870A9F80000C0E6019ADDE90E0141F807
:1041800022000198401C0190149901988842C6D3DE
:10419000A5420DD1C4F808B0E660BBF1000F02D013
:1041A000CBF80C4001E0554804605EB1B46009E012
:1041B000686910902561109860616C61109808B171
:1041C000109804614F48206065600C98A0610399C5
:1041D0000C980844401EE0610F9820620398A0628A
:1041E0001F9860631E9820631498E06214986062C0
:1041F00000BF00BF0098FFF723FB00BF00BF42F2E3
:104200001070A9F8000000BF77E62DE9F0410446E0
:104210000D46002700BF00BFFFF70EFB074600BF9B
:1042200000BF666A00BF00BF3846FFF709FB00BF4A
:1042300000BF42F2107028803046BDE8F0812DE9C1
:10424000F041044688461546002700BF00BFFFF72F
:10425000F3FA074600BF00BF606A60B900BF00BF45
:104260003846FFF7EDFA00BF00BF42F2DE7028804B
:104270000020BDE8F081E16A606A88420BD900BF86
:1042800000BF3846FFF7DCFA00BF00BF42F295706E
:1042900028800020EDE7606A401E6062D4E90801D2
:1042A00050F8216000BF00BF3846FFF7C9FA00BFD1
:1042B00000BF42F2107028803046DAE72DE9F0475F
:1042C00004460F4615464FF0000900BF00BFFFF738
:1042D000B3FA814600BF00BFE06AC01B461EE06A19
:1042E000B04213D800BF00BF4846FFF7A9FA00BF8D
:1042F00000BF42F295702880002005E06C0000208D
:104300003C250020504F4F4CBDE8F087606AB0421A
:104310000BD900BF00BF4846FFF792FA00BF00BFAD
:1043200042F2957028800020E7E7206A50F8268046
:1043300000BF00BF4846FFF783FA00BF00BF42F24C
:10434000107028804046D8E72DE9F04704460E4615
:1043500017464FF0000A00BF00BFFFF76DFA824614
:1043600000BF00BFE16A606A88420BD300BF00BF94
:104370005046FFF765FA00BF00BF42F2DD7038809B
:10438000BDE8F0874FF00008656A08E0206A50F841
:104390002590B14502D14FF0010803E06D1CE06AA1
:1043A000A842F3D800BFB8F1010F06D1D4E9080143
:1043B00050F82100216A41F82500D4E9080140F8AD
:1043C0002160606A401C606200BF00BF5046FFF77A
:1043D00037FA00BF00BF42F21070388000BFCFE74D
:1043E0002DE9F84F04460F461646002000904FF086
:1043F000FF3B00BF00BFFFF71FFA009000BF00BFE8
:10440000E16A606A88420CD300BF00BF0098FFF7E2
:1044100017FA00BF00BF42F2DD7030805846BDE899
:10442000F88F4FF00009656A08E0206A50F825808F
:10443000B84502D14FF0010903E06D1CE06AA842C3
:10444000F3D800BFB9F1010F0FD1E06A401EA0EB15
:10445000050A00BF00BF0098FFF7F2F900BF00BFD8
:1044600042F2107030805046D9E700BF00BF00987C
:10447000FFF7E6F900BF00BF42F28870308058466F
:10448000CDE7000010B502460B461146002001E0C2
:10449000491C401C19B10C780CB19842F8D310BDDE
:1044A00030B504464FF0FF312046FFF7EBFF0546DD
:1044B000284630BD70B504460D4616460CB900209E
:1044C00070BD0DB90020FBE721462A46002304E019
:1044D00010780870491C521C5B1C21B11AB110786D
:1044E00008B1B342F4D301B10AB90020E8E7B342FE
:1044F00001D2002008702046E2E770B504460D4660
:104500004FF0FF3229462046FFF7D4FF06463046DB
:1045100070BD70B503460C4615460BB9002070BD42
:104520000CB90020FBE70DB91846F8E7194600E082
:10453000491C11B108780028FAD109B90020EEE72A
:104540002246002604E010780870491C521C761C94
:1045500021B11AB1107808B1AE42F4D301B10AB951
:104560000020DCE7002008701846D8E770B5044644
:104570000D464FF0FF3229462046FFF7CAFF064698
:10458000304670BD2DE9F04305460B469446BCF11C
:10459000000F02D10020BDE8F08335B90BB900202F
:1045A000F9E7187842421046F5E713B92A78104621
:1045B000F1E729461C460F4626467F1C761C4FF025
:1045C000000805E0491C641C7F1C761C08F10108EA
:1045D000087894F80090484505D1087818B117B1CB
:1045E0000EB1E045EED3E04501D10020D3E70878D5
:1045F00094F80090484505D0087894F80090A0EB16
:1046000009020BE0087808B9002207E02FB90EB9BB
:10461000002203E03078424200E03A781046BAE7E0
:1046200070B504460D464FF0FF3229462046FFF78D
:10463000A9FF0646304670BD2DE9F74F82B080468F
:104640000E46049818B9002005B0BDE8F08FB8F107
:10465000000F09D10EB90020F6E73078FFF7FAF91C
:1046600007467C422046EFE73EB998F80000FFF786
:10467000F1F905462C462046E6E7C146B246C84653
:10468000C3465646CDF804A0D8460BF1010B019E57
:10469000701C0190C84699F80000FFF7DBF9054649
:1046A00056469AF80000FFF7D5F90746002000901B
:1046B00015E009F101090AF1010A0BF1010B01985A
:1046C000401C01900098401C009099F80000FFF7F2
:1046D000C1F905469AF80000FFF7BCF90746BD424C
:1046E0000BD199F8000040B1BBF1000F05D0019843
:1046F00018B1049900988842DBD304990098884245
:1047000001D10020A0E7BD4201D0EC1B16E00DB99D
:10471000002413E0BBF1000F0AD1019808B900246E
:104720000CE001990878FFF795F907467C4205E00F
:104730009BF80000FFF78EF905462C46204683E7DC
:1047400070B504460D464FF0FF3229462046FFF76C
:1047500073FF0646304670BD30B504460B4615461D
:104760000CB9002030BD0BB90020FBE72146002228
:1047700001E0491C521C31B1087820B10878A842E8
:1047800001D09A42F5D309B90020EBE79A4201D350
:104790000020E7E70878A84201D00020E2E70846B9
:1047A000E0E770B505460C4622464FF0FF3128463B
:1047B000FFF7D2FF0646304670BD2DE9F0430546AF
:1047C0000E46174615B90020BDE8F0830EB900204B
:1047D000FAE72C46A6F1010949462046FFF752FEAA
:1047E000804644440CB90020EEE700E0641EAC4271
:1047F00002D02078B842F9D12078B84201D0002008
:10480000E2E72046E0E770B505460C4622464FF049
:10481000FF312846FFF7D1FF0646304670BD70B520
:1048200004460D4616460CB9002070BD0BB9002099
:10483000FBE721461A4605E00878A84200D10E7031
:10484000491C521E19B1087808B1002AF4D120463B
:10485000EBE7F0B504460D4616464FF0FF333246FF
:1048600029462046FFF7DBFF07463846F0BD2DE915
:10487000FF4F06460F4615461EB9002004B0BDE89E
:10488000F08F0FB90020F9E70DB90020F6E7681C9A
:1048900000B101E04FF0FF30039029463046FFF7AA
:1048A000F1FD804638460399FFF7ECFD04460CB94C
:1048B0003046E3E7444501D90020DFE706EB080B6B
:1048C000BBF1000F01D10020D8E707EB040BBBF1CF
:1048D000000F01D10020D1E7A8EB040002904FF0B7
:1048E00000090020019000BF06EB0900009022465D
:1048F00039460098FFF746FE8246BAF1000F01D113
:10490000012000E00020019009F10109019810B98F
:1049100002988145E8D9BAF1000F01D00020ADE737
:104920000098ABE770B504460D464FF0FF322946BC
:104930002046FFF79CFF0646304670BD2DE9FF4F2D
:104940008DB00F4615461A9E1D9818B9002011B05B
:10495000BDE8F08F002003900490012F01DA0120C0
:104960000390022D01D3242D01D90120039096B389
:104970003046FFF70BF802900298012802D0012080
:10498000039028E0302E26D0A6F13000C0B2079068
:104990001B98012804D0A6F14100C0B2069003E0A4
:1049A000A6F16100C0B206900A2D02D80798A8426D
:1049B00009DB0A2D09D907980A2804D3A5F10A00B2
:1049C0000699884201D9012000E000200590059851
:1049D000012800D103901D9C0398002846D1DDF8E2
:1049E00034A0DDF834A0CDF830A001200B9007E012
:1049F0000B98401CC0B20B900C98B0FBF5F00C90DB
:104A00000C98A842F4D21098012800D100E00020B0
:104A100009900B9909980844B84225DC00200190C0
:104A20000B98B84201DA0B9800E038460A903EB184
:104A3000B8460A98391A0998081AC0B2089006E0D0
:104A4000DDE90910084400F0FF08002008900898EC
:104A5000002806DD302E01D1012000E00020049066
:104A600004E00020049001E001200390039800B1CD
:104A7000B84644441C9808B100202070641E4FF0D2
:104A8000000941E00398A8BBBAF1000F02D1B9F1C7
:104A9000000F1CD1BAFBF5F005FB10A000F0FF0BD6
:104AA000BBF10A0F04D20BF1300004F801090BE04E
:104AB0001B98012804D00BF1370004F8010903E02A
:104AC0000BF1570004F80109BAFBF5FA1AE0109847
:104AD000012810D1049808B9019828B1049850B160
:104AE000A8F10100484506D12D2004F80109012054
:104AF000019007E003E02EB104F8016902E03F20D5
:104B000004F8010909F10109C145BBD3039808B1B3
:104B100000201CE71D981AE72DE9FF5F05460E46A9
:104B200017461C46DDE90F9ADDF8388000233A4627
:104B3000314628468DE81007FFF700FF83465846A8
:104B400004B0BDE8F09F2DE9FF4F85B004468946CB
:104B50001F46DDE913AB002C02DA6542012601E0B5
:104B60002546002612983346CDE902ABCDE9007008
:104B700049462846079AFFF7E1FE8046404609B0BD
:104B8000BDE8F08F2DE9FF4F8BB0064689461546EC
:104B9000B9F1000F02D10DF1240900BFC9F800607E
:104BA000189810B907A8189000BF00211898017034
:104BB0001EB900200FB0BDE8F08F012D01D0242DCB
:104BC00001D90020F6E734462078FEF7CDFE0390A9
:104BD00004E0641C2078FEF7C7FE039003980128C8
:104BE000F7D020782B2802D02D280BD103E0641CAD
:104BF0004FF0000B09E00E98012800D1641C4FF023
:104C0000010B02E04FF0000B00BF00BF0A9425B17A
:104C1000082D1CD0102D36D11EE02078302814D15C
:104C2000641C2078582802D078280BD100BF1025AA
:104C300067783846FEF77CFE8246BAF1010F00D154
:104C4000641C01E0082500BF00E00A251CE0207874
:104C5000302800D1641C17E02078302812D1641C61
:104C60002078582802D078280AD100BF67783846C3
:104C7000FEF75EFE8246BAF1010F00D1641C00E02F
:104C800000BF00BF00E000BF00BF4FF000080020E1
:104C90000290019040E027783846FEF7FBFD059032
:104CA0000598012836D13846FEF72EFE0690069864
:104CB000012804D1A7F13000C0B208900FE03846B7
:104CC000FEF70EFE04900498012804D1A7F15700C6
:104CD000C0B2089003E0A7F13700C0B2089008986E
:104CE000A84214DA029880B9304850F825004045AF
:104CF00009D308FB05F8089880440898804504D239
:104D00000120029001E001200290641C04E00120D7
:104D1000019001E00120019001980028BBD0029889
:104D2000012801D14FF0FF380A98844202D0C9F817
:104D3000004001E0C9F80060189880F800B04046D3
:104D400038E7F8B504460D461646002003463246BD
:104D5000294600902046FFF715FF07463846F8BD64
:104D60002DE9FC4105460E46174601A801233A46A7
:104D7000314600902846FFF705FF04469DF80400E1
:104D800040B9B4F1004F02D36FF0004000E020467C
:104D9000804607E0B4F1004F02D34FF0004000E03E
:104DA000604280464046BDE8FC81000028FB0008C8
:104DB000002800D17047002900D17047002A00D197
:104DC00070472DE9F81F00F0030301F00304A3422C
:104DD00011D1C3F1040303F00303012B1DD3012AF6
:104DE00000D2F2E011F8014B00F8014BA3F10103EE
:104DF000A2F10102F1E700F0010301F00104A34276
:104E000000D094E0012B44D311F8014B00F8014B82
:104E1000A3F10103A2F10102F4E7B2F5B47F26D3B6
:104E2000B1E8F81FA0E8F81FB1E8F81FA0E8F81FE4
:104E3000B1E8F81FA0E8F81FB1E8F81FA0E8F81FD4
:104E4000B1E8F81FA0E8F81FB1E8F81FA0E8F81FC4
:104E5000B1E8F81FA0E8F81FB1E8F81FA0E8F81FB4
:104E6000B1E8F81FA0E8F81FA2F5B472D5E7282A28
:104E700006D3B1E8F81FA0E8F81FA2F12802F6E770
:104E8000042A06D351F8043B40F8043BA2F1040283
:104E9000F6E7202A42D331F8023B20F8023B31F8F2
:104EA000023B20F8023B31F8023B20F8023B31F88C
:104EB000023B20F8023B31F8023B20F8023B31F87C
:104EC000023B20F8023B31F8023B20F8023B31F86C
:104ED000023B20F8023B31F8023B20F8023B31F85C
:104EE000023B20F8023B31F8023B20F8023B31F84C
:104EF000023B20F8023B31F8023B20F8023B31F83C
:104F0000023B20F8023B31F8023B20F8023B31F82B
:104F1000023B20F8023BA2F12002BAE7022A06D3A4
:104F200031F8023B20F8023BA2F10202F6E7102A18
:104F300042D311F8013B00F8013B11F8013B00F8A6
:104F4000013B11F8013B00F8013B11F8013B00F86F
:104F5000013B11F8013B00F8013B11F8013B00F85F
:104F6000013B11F8013B00F8013B11F8013B00F84F
:104F7000013B11F8013B00F8013B11F8013B00F83F
:104F8000013B11F8013B00F8013B11F8013B00F82F
:104F9000013B11F8013B00F8013B11F8013B00F81F
:104FA000013B11F8013B00F8013B11F8013B00F80F
:104FB000013BA2F11002BAE7012A06D311F8013B26
:104FC00000F8013BA2F10102F6E7BDE8F81F7047C7
:104FD00015481648164817481748184818481948D9
:104FE00019481A481A481B481B481C481C481D48A9
:104FF0001D481E481E481F481F4820482048214879
:105000002148224822482348234824482448254848
:105010002548264826482748274828482848294818
:10502000294800BF704700005CFC0008BCFB00087A
:10503000C0FB0008C4FB0008C8FB0008CCFB00084C
:10504000D0FB0008D4FB0008D8FB0008DCFB0008FC
:10505000E0FB0008E4FB0008E8FB0008ECFB0008AC
:10506000F0FB0008F4FB0008F8FB0008FCFB00085C
:1050700000FC000804FC000808FC00080CFC000808
:1050800010FC000814FC000818FC00081CFC0008B8
:1050900020FC000824FC000828FC00082CFC000868
:1050A00030FC000834FC000838FC00083CFC000818
:1050B00040FC000844FC000848FC00084CFC0008C8
:1050C00050FC000854FC000858FC0008002400BFF5
:1050D00019E000BF00BFFEF7AFFB044600BF00BFF2
:1050E000F9480068401CF8490860F8480068401C0E
:1050F000F649086000BF00BF2046FEF7A1FB00BFD5
:1051000000BF07F079FBE4E710B58AB00446002041
:10511000ED4908600B2000210591CDE907040691B7
:105120000846EB490968EB4A1268EB4B1B68CDE96E
:105130000132CDE903103F200023AFF26F02E7A157
:105140000090EB4804F084FD0AB010BD00210AE095
:1051500001EB4102E74B03EB820000220281026077
:1051600042604A1CD1B24029F2D3704770B5044660
:1051700007F04AFB0020E0490870E0490870E04968
:105180000870E0490860E0490860E0490870E049BB
:105190000870E0490870E0490860E0490860E049AB
:1051A0000860E0490870E04800680A21B0FBF1F0AF
:1051B000DE490860DE48006858B1DE48056845B140
:1051C000DB48066803E0761E002028602D1D002EB7
:1051D000F9D10020D8490860D8490860D84908604A
:1051E000D8490860D8490860D8490860D84908609B
:1051F000D849087003F00CF8FFF7A8FF204601F02B
:1052000035FE208800B170BD204602F070F920887C
:1052100000B1F8E7204602F096F9208800B1F2E7E5
:10522000204602F0DDFF208800B1ECE7204603F0C5
:1052300089FC208800B1E6E7204604F09FF820882A
:1052400000B1E0E7204606F073F9208800B1DAE704
:10525000204601F090FF208800B1D4E72046FFF7F8
:1052600053FF208800B1CEE7204606F0B8FA208828
:1052700000B1C8E7204604F03AFB208800B1C2E73D
:10528000204607F014FA208800B1BCE700F016FEB3
:10529000FFF79EFE00BFB6E798480078012800D0CF
:1052A000704795480078FA2800DBF9E792480078C3
:1052B000401C9149087000BFF2E710B500248F48E8
:1052C0000078012800D010BD00BFFEF7B5FA0446F3
:1052D00000BF8948007828B900BF2046FEF7B0FA21
:1052E00000BFF0E784480078401E834908700846F4
:1052F0000078002805DD00BF2046FEF7A1FA00BFB8
:10530000E1E77F480078002805DD00BF2046FEF772
:1053100097FA00BFD7E702F085FF7D49087008467D
:10532000007800EB4000734951F82000764908608E
:105330000846006873490968884205D100BF2046C5
:10534000FEF77EFA00BFBEE76F480068D0F8900015
:10535000401C6D490968C1F890007F480068401CF6
:105360007D49086008F0AAFD00BF2046FEF768FAF4
:1053700000BF00BFA7E710B500245F4800780028F1
:1053800000DD10BD5E480078002800DDF9E700BFB1
:10539000FEF752FA044600BF02F044FF5C49087071
:1053A0000846007800EB4000524951F82000564969
:1053B00008600846006853490968884205D100BF63
:1053C0002046FEF73DFA00BFDBE74F480068D0F803
:1053D0009000401C4C490968C1F890005E48006884
:1053E000401C5D49086008F064FD00BF2046FEF7E0
:1053F00027FA00BF00BFC4E710B541480078012874
:1054000003D1FEF79CF84449086010BD70B504460E
:10541000002539480078002803DD46F662502080D8
:1054200070BD36480078012803D045F68960208099
:10543000F6E733480078FA2803DB45F2092020809C
:10544000EEE700BF00BFFEF7F7F9054600BF00BF5B
:105450002B480078401C2A490870FFF7CDFF00BF99
:1054600000BF2846FEF7ECF900BF00BF00202080F7
:1054700000BFD5E710B52248007880B9FEF75FF885
:1054800025490968441A25480068A04201D22348EA
:10549000046023480068A04201D22148046010BD86
:1054A00070B50446002514480078002803DD46F650
:1054B0006550208070BD1148007801284ED045F617
:1054C00089602080F6E7000094000020F8000020AA
:1054D000C4FB0008C0FB0008BCFB000875432F4F4D
:1054E000532D4949492049646C65205461736B0010
:1054F000143E0020A83F00209800002099000020C2
:10550000E0000020380100203C010020C6000020FF
:10551000C7000020C8000020D4000020D8000020D0
:10552000DC000020E80000201CFC0008E400002053
:10553000ECFB0008E8FB0008780000207C0000205D
:105540008000002084000020880000208C000020C3
:1055500090000020160100200C010020F94800787E
:1055600018B946F664502080A4E700BF00BFFEF7DC
:1055700063F9054600BF00BFF2480078401EF149BC
:1055800008700846007800280ADD00BF00BF2846E2
:10559000FEF756F900BF00BF46F66350208089E74A
:1055A000FFF768FF00BF00BF2846FEF749F900BFBC
:1055B00000BFFFF7E0FE0020208000BF7AE72DE962
:1055C000F04105460C461646002700BF00BFFEF717
:1055D00033F9074600BF00BF012D03D00020DA4990
:1055E000087002E00120D849087014B1D74804605F
:1055F00006E0D74800680A21B0FBF1F0D349086003
:1056000000BF00BF3846FEF71BF900BF00BF0020F7
:105610003080BDE8F08110B501460C8924B1012C21
:1056200003D0022C0CD101E000BF14E008684A68E6
:1056300002610024C4601461D0600A6048600AE01E
:1056400008684A68C36800241C61C4600261D060B5
:105650000B60486000BF00BF10BD2DE9F04104465B
:105660000027BC480078002804DD48F2D1402080A3
:10567000BDE8F081B3480078002803DD46F66350AA
:105680002080F5E7B0480078012803D046F67B106B
:105690002080EDE700BF00BFFEF7CEF8074600BF51
:1056A00000BFAD48007800EB4000AC4901EB80063C
:1056B000308902280ADA00BF00BF3846FEF7C0F87A
:1056C00000BF00BF46F67A102080D1E73046FFF7D2
:1056D000A2FF3568686D18B99C480068A86501E0AC
:1056E000686DA86500BF00BF3846FEF7A9F800BF87
:1056F00000BFFFF740FE0020208000BFB8E710B5D4
:10570000044697480078E8B902F08CFD9549087086
:1057100008460078904908709248007800EB4000F5
:105720008E4951F8200090490860084600688F496A
:10573000086001208A49087008F0AAFB43F6992006
:10574000208002E045F68A60208010BD01460020DE
:10575000088047F25C60704730B548B14568C1F8D1
:10576000C05000F10804226893681D6AC56113E007
:1057700091F83450022D02D0072D08D103E07CA50A
:10578000C1F8C05007E07CA5C1F8C05003E07DA57A
:10579000C1F8C05000BF00BF30BDF0B58E6896F8AC
:1057A000375007893FB90127078100274F600F60F5
:1057B0000160416023E007897F1C0781026806E0E1
:1057C000946894F83770AF4200DD02E05268002A16
:1057D000F6D100BF32B900274F6043680B605960B3
:1057E00041600CE017682FB9116000270F604A6014
:1057F000016004E013680B604A6059601160F0BDFD
:1058000010B5C287016300230AE000244C600C60DD
:105810000C614C610C83CC61886020315C1CA3B2AC
:105820009342F2DB10BD2DE9F041054695F83700B3
:1058300000EB4000494901EB80042F69EE6887B90D
:1058400046B9002020812060606095F8370002F0A2
:105850000BFD0EE02089401E208100203061266073
:1058600007E02089401E2081FE600EB9676000E0DD
:10587000376100202861E860BDE8F08138B5044652
:105880000D4685B16B4602222946204605F0E8FF09
:10589000BDF8000018B9032084F8360006E00220A5
:1058A00084F8360002E0022084F836002046FFF734
:1058B000BAFF38BD2DE9F04105460C4616461F4695
:1058C0002A48006880F8346000202849096881F877
:1058D0003500394625480068FFF7D0FF6CB104F168
:1058E0000808EC600122294620480068FFF788FF7D
:1058F00029464046FFF751FF06E000201B49096892
:10590000C8871A4909680863184801682046FFF7E4
:1059100023FFBDE8F08110B50489012C03D10024D8
:105920000460446034E00C6824B94A6800241460C0
:1059300002602DE04C6824B90B6800245C60436071
:1059400026E021E0E0000020E8000020E400002044
:105950001CFC000898000020C6000020A83F002082
:1059600099000020C70000203C01002038010020E1
:105970005461736B205100005461736B2053656D4B
:1059800000000000200000000B684A685A601360A5
:105990000489641E048100244C600C6010BD2DE954
:1059A000F0410446256BE68F0AE0D5F80C8008F13B
:1059B000080729463846FFF7AEFF2035701E86B22D
:1059C000002EF2DC0020E0872063BDE8F08130B5D6
:1059D0000346086BCC8F08E0C5689D4202D1036185
:1059E000C26104E02030651EACB2002CF4DC00BFC4
:1059F00030BD10B590F8373003EB4303F94C04EB9E
:105A000083010B893BB901230B810023C360036130
:105A10000860486009E00B895B1C0B810B68C36060
:105A2000002303610A681061086010BD10B590F88A
:105A3000373003EB4303EB4C04EB83010B893BB999
:105A400001230B810023C36003610860486008E004
:105A50000B895B1C0B810023C3604A680261D06024
:105A6000486010BD10B5044694F8370002F0ECFB16
:105A700094F83700DC490978884203D12046FFF7C3
:105A8000D5FF02E02046FFF7B4FF10BD10B5044675
:105A9000204605F075FD94F8360000F0040010B9BA
:105AA0002046FFF7DFFF10BD70B505460C461646D1
:105AB00094F83600082847D2DFE800F0040508090A
:105AC0000607272800BF00BF00BF3EE000BF94F8D4
:105AD0003400032804D1324621462846FFF777FFD9
